{
    "contractName": "TokenSale",
    "abi": [
        {
            "inputs": [
                {
                    "internalType": "address",
                    "name": "_initialOwner",
                    "type": "address"
                },
                {
                    "internalType": "address",
                    "name": "_token",
                    "type": "address"
                },
                {
                    "internalType": "address",
                    "name": "_ustd",
                    "type": "address"
                },
                {
                    "internalType": "address",
                    "name": "_priceFeed",
                    "type": "address"
                },
                {
                    "internalType": "uint256",
                    "name": "_precision",
                    "type": "uint256"
                },
                {
                    "internalType": "uint256",
                    "name": "_availableTokens",
                    "type": "uint256"
                },
                {
                    "internalType": "uint256",
                    "name": "_limitTokensPerUser",
                    "type": "uint256"
                },
                {
                    "internalType": "uint256",
                    "name": "_tokenPrice",
                    "type": "uint256"
                },
                {
                    "internalType": "uint256",
                    "name": "_vestingEnd",
                    "type": "uint256"
                }
            ],
            "stateMutability": "nonpayable",
            "type": "constructor"
        },
        {
            "inputs": [
                {
                    "internalType": "address",
                    "name": "owner",
                    "type": "address"
                }
            ],
            "name": "OwnableInvalidOwner",
            "type": "error"
        },
        {
            "inputs": [
                {
                    "internalType": "address",
                    "name": "account",
                    "type": "address"
                }
            ],
            "name": "OwnableUnauthorizedAccount",
            "type": "error"
        },
        {
            "anonymous": false,
            "inputs": [
                {
                    "indexed": false,
                    "internalType": "uint256",
                    "name": "_amount",
                    "type": "uint256"
                },
                {
                    "indexed": true,
                    "internalType": "address",
                    "name": "_buyer",
                    "type": "address"
                }
            ],
            "name": "Bought",
            "type": "event"
        },
        {
            "anonymous": false,
            "inputs": [
                {
                    "indexed": false,
                    "internalType": "uint256",
                    "name": "_amount",
                    "type": "uint256"
                },
                {
                    "indexed": true,
                    "internalType": "address",
                    "name": "_holder",
                    "type": "address"
                }
            ],
            "name": "Claimed",
            "type": "event"
        },
        {
            "anonymous": false,
            "inputs": [
                {
                    "indexed": true,
                    "internalType": "address",
                    "name": "previousOwner",
                    "type": "address"
                },
                {
                    "indexed": true,
                    "internalType": "address",
                    "name": "newOwner",
                    "type": "address"
                }
            ],
            "name": "OwnershipTransferred",
            "type": "event"
        },
        {
            "inputs": [],
            "name": "PRECISION",
            "outputs": [
                {
                    "internalType": "uint256",
                    "name": "",
                    "type": "uint256"
                }
            ],
            "stateMutability": "view",
            "type": "function"
        },
        {
            "inputs": [],
            "name": "availableTokens",
            "outputs": [
                {
                    "internalType": "uint256",
                    "name": "",
                    "type": "uint256"
                }
            ],
            "stateMutability": "view",
            "type": "function"
        },
        {
            "inputs": [
                {
                    "internalType": "uint256",
                    "name": "_amount",
                    "type": "uint256"
                }
            ],
            "name": "buyWithEth",
            "outputs": [],
            "stateMutability": "payable",
            "type": "function"
        },
        {
            "inputs": [
                {
                    "internalType": "uint256",
                    "name": "_amount",
                    "type": "uint256"
                }
            ],
            "name": "buyWithUSDT",
            "outputs": [],
            "stateMutability": "nonpayable",
            "type": "function"
        },
        {
            "inputs": [
                {
                    "internalType": "address",
                    "name": "_address",
                    "type": "address"
                }
            ],
            "name": "checkUserBalance",
            "outputs": [
                {
                    "internalType": "uint256",
                    "name": "",
                    "type": "uint256"
                }
            ],
            "stateMutability": "view",
            "type": "function"
        },
        {
            "inputs": [
                {
                    "internalType": "address",
                    "name": "_holder",
                    "type": "address"
                }
            ],
            "name": "claimToken",
            "outputs": [],
            "stateMutability": "nonpayable",
            "type": "function"
        },
        {
            "inputs": [],
            "name": "endsAt",
            "outputs": [
                {
                    "internalType": "uint256",
                    "name": "",
                    "type": "uint256"
                }
            ],
            "stateMutability": "view",
            "type": "function"
        },
        {
            "inputs": [],
            "name": "ethBalance",
            "outputs": [
                {
                    "internalType": "uint256",
                    "name": "",
                    "type": "uint256"
                }
            ],
            "stateMutability": "view",
            "type": "function"
        },
        {
            "inputs": [
                {
                    "internalType": "uint256",
                    "name": "_amount",
                    "type": "uint256"
                }
            ],
            "name": "ethBuyHelper",
            "outputs": [
                {
                    "internalType": "uint256",
                    "name": "ethAmount",
                    "type": "uint256"
                }
            ],
            "stateMutability": "view",
            "type": "function"
        },
        {
            "inputs": [],
            "name": "getLatestPrice",
            "outputs": [
                {
                    "internalType": "uint256",
                    "name": "",
                    "type": "uint256"
                }
            ],
            "stateMutability": "view",
            "type": "function"
        },
        {
            "inputs": [],
            "name": "limitTokensPerUser",
            "outputs": [
                {
                    "internalType": "uint256",
                    "name": "",
                    "type": "uint256"
                }
            ],
            "stateMutability": "view",
            "type": "function"
        },
        {
            "inputs": [],
            "name": "owner",
            "outputs": [
                {
                    "internalType": "address",
                    "name": "",
                    "type": "address"
                }
            ],
            "stateMutability": "view",
            "type": "function"
        },
        {
            "inputs": [],
            "name": "renounceOwnership",
            "outputs": [],
            "stateMutability": "nonpayable",
            "type": "function"
        },
        {
            "inputs": [
                {
                    "internalType": "uint256",
                    "name": "_newDuration",
                    "type": "uint256"
                }
            ],
            "name": "setSaleEndTime",
            "outputs": [],
            "stateMutability": "nonpayable",
            "type": "function"
        },
        {
            "inputs": [],
            "name": "startAt",
            "outputs": [
                {
                    "internalType": "uint256",
                    "name": "",
                    "type": "uint256"
                }
            ],
            "stateMutability": "view",
            "type": "function"
        },
        {
            "inputs": [],
            "name": "token",
            "outputs": [
                {
                    "internalType": "contract SolarGreen",
                    "name": "",
                    "type": "address"
                }
            ],
            "stateMutability": "view",
            "type": "function"
        },
        {
            "inputs": [],
            "name": "tokenBalance",
            "outputs": [
                {
                    "internalType": "uint256",
                    "name": "",
                    "type": "uint256"
                }
            ],
            "stateMutability": "view",
            "type": "function"
        },
        {
            "inputs": [],
            "name": "tokenPrice",
            "outputs": [
                {
                    "internalType": "uint256",
                    "name": "",
                    "type": "uint256"
                }
            ],
            "stateMutability": "view",
            "type": "function"
        },
        {
            "inputs": [
                {
                    "internalType": "address",
                    "name": "newOwner",
                    "type": "address"
                }
            ],
            "name": "transferOwnership",
            "outputs": [],
            "stateMutability": "nonpayable",
            "type": "function"
        },
        {
            "inputs": [
                {
                    "internalType": "uint256",
                    "name": "_newPrice",
                    "type": "uint256"
                }
            ],
            "name": "updateTokenPrice",
            "outputs": [],
            "stateMutability": "nonpayable",
            "type": "function"
        },
        {
            "inputs": [],
            "name": "usdt",
            "outputs": [
                {
                    "internalType": "contract IERC20",
                    "name": "",
                    "type": "address"
                }
            ],
            "stateMutability": "view",
            "type": "function"
        },
        {
            "inputs": [],
            "name": "usdtBalance",
            "outputs": [
                {
                    "internalType": "uint256",
                    "name": "",
                    "type": "uint256"
                }
            ],
            "stateMutability": "view",
            "type": "function"
        },
        {
            "inputs": [
                {
                    "internalType": "uint256",
                    "name": "_amount",
                    "type": "uint256"
                }
            ],
            "name": "usdtBuyHelper",
            "outputs": [
                {
                    "internalType": "uint256",
                    "name": "usdPrice",
                    "type": "uint256"
                }
            ],
            "stateMutability": "view",
            "type": "function"
        },
        {
            "inputs": [],
            "name": "vestingEnd",
            "outputs": [
                {
                    "internalType": "uint256",
                    "name": "",
                    "type": "uint256"
                }
            ],
            "stateMutability": "view",
            "type": "function"
        },
        {
            "inputs": [
                {
                    "internalType": "uint256",
                    "name": "amount",
                    "type": "uint256"
                }
            ],
            "name": "withdraw",
            "outputs": [],
            "stateMutability": "nonpayable",
            "type": "function"
        }
    ],
    "bytecode": "608060405234801562000010575f80fd5b506040516200118538038062001185833981016040819052620000339162000164565b886001600160a01b0381166200006257604051631e4fbdf760e01b81525f600482015260240160405180910390fd5b6200006d81620000f9565b50600280546001600160a01b03808b166001600160a01b03199283161790925560038054928a1692909116919091179055600485905560088490556009839055426005819055620000c290622e2480620001ec565b600655600755600a555050600b80546001600160a01b0319166001600160a01b039390931692909217909155506200021292505050565b5f80546001600160a01b038381166001600160a01b0319831681178455604051919092169283917f8be0079c531659141344cd1fd0a4f28419497f9722a3daafe3b4186f6b6457e09190a35050565b80516001600160a01b03811681146200015f575f80fd5b919050565b5f805f805f805f805f6101208a8c0312156200017e575f80fd5b620001898a62000148565b98506200019960208b0162000148565b9750620001a960408b0162000148565b9650620001b960608b0162000148565b955060808a0151945060a08a0151935060c08a0151925060e08a015191506101008a015190509295985092959850929598565b808201808211156200020c57634e487b7160e01b5f52601160045260245ffd5b92915050565b610f6580620002205f395ff3fe608060405260043610610161575f3560e01c80637649b957116100cd578063a7c6016011610087578063d132391a11610062578063d132391a146103ae578063e28f2ab5146103cd578063f2fde38b146103e2578063fc0c546a14610401575f80fd5b8063a7c6016014610365578063aaf5eb6814610384578063c744656514610399575f80fd5b80637649b957146102e45780637ff9b596146102f757806384a1931f1461030c5780638da5cb5b146103215780638e15f4731461033d5780639e1a4d1914610351575f80fd5b8063482edb071161011e578063482edb07146102575780634e6630b01461026b57806363e408791461027d578063676c0d771461029c57806369bb4dc2146102bb578063715018a6146102d0575f80fd5b80630a09284a146101655780630a9bfef51461018d57806329a5a0b6146101c15780632e1a7d4d146101e05780632f48ab7d1461020157806332f289cf14610238575b5f80fd5b348015610170575f80fd5b5061017a60065481565b6040519081526020015b60405180910390f35b348015610198575f80fd5b5061017a6101a7366004610db3565b6001600160a01b03165f9081526001602052604090205490565b3480156101cc575f80fd5b5061017a6101db366004610dd9565b610420565b3480156101eb575f80fd5b506101ff6101fa366004610dd9565b610465565b005b34801561020c575f80fd5b50600354610220906001600160a01b031681565b6040516001600160a01b039091168152602001610184565b348015610243575f80fd5b506101ff610252366004610db3565b6104f7565b348015610262575f80fd5b5061017a61069b565b348015610276575f80fd5b504761017a565b348015610288575f80fd5b5061017a610297366004610dd9565b61070b565b3480156102a7575f80fd5b506101ff6102b6366004610dd9565b600a55565b3480156102c6575f80fd5b5061017a60085481565b3480156102db575f80fd5b506101ff61072d565b6101ff6102f2366004610dd9565b610740565b348015610302575f80fd5b5061017a600a5481565b348015610317575f80fd5b5061017a60075481565b34801561032c575f80fd5b505f546001600160a01b0316610220565b348015610348575f80fd5b5061017a6107de565b34801561035c575f80fd5b5061017a6108b9565b348015610370575f80fd5b506101ff61037f366004610dd9565b6108e9565b34801561038f575f80fd5b5061017a60045481565b3480156103a4575f80fd5b5061017a60055481565b3480156103b9575f80fd5b506101ff6103c8366004610dd9565b6109dd565b3480156103d8575f80fd5b5061017a60095481565b3480156103ed575f80fd5b506101ff6103fc366004610db3565b6109f8565b34801561040c575f80fd5b50600254610220906001600160a01b031681565b5f80600454600a54846104339190610e04565b61043d9190610e1b565b90506104476107de565b6004546104549083610e04565b61045e9190610e1b565b9392505050565b61046d610a35565b804710156104b95760405162461bcd60e51b8152602060048201526014602482015273496e73756666696369656e742062616c616e636560601b60448201526064015b60405180910390fd5b5f80546040516001600160a01b039091169182916108fc85150291859190818181858888f193505050501580156104f2573d5f803e3d5ffd5b505050565b60075442101561055e5760405162461bcd60e51b815260206004820152602c60248201527f746f6b656e20636c61696d2077696c6c20626520616c6c6f776564206166746560448201526b7220323032342d31322d333160a01b60648201526084016104b0565b6001600160a01b0381165f90815260016020526040902054806105b75760405162461bcd60e51b81526020600482015260116024820152701e995c9bc818db185a5b48185b5bdd5b9d607a1b60448201526064016104b0565b60025460405163a9059cbb60e01b81526001600160a01b038481166004830152602482018490529091169063a9059cbb906044016020604051808303815f875af1158015610607573d5f803e3d5ffd5b505050506040513d601f19601f8201168201806040525081019061062b9190610e3a565b506001600160a01b0382165f9081526001602052604081208054839290610653908490610e59565b90915550506040518181526001600160a01b038316907f6aa3eac93d079e5e100b1029be716caa33586c96aa4baac390669fb5c2a21212906020015b60405180910390a25050565b6003546040516370a0823160e01b81523060048201525f916001600160a01b0316906370a08231906024015b602060405180830381865afa1580156106e2573d5f803e3d5ffd5b505050506040513d601f19601f820116820180604052508101906107069190610e6c565b905090565b5f600454600a548361071d9190610e04565b6107279190610e1b565b92915050565b610735610a35565b61073e5f610a61565b565b5f61074a82610420565b90506107563383610ab0565b803410156107955760405162461bcd60e51b815260206004820152600c60248201526b13195cdcc81c185e5b595b9d60a21b60448201526064016104b0565b5f6107a08234610e59565b905080156107d457604051339082156108fc029083905f818181858888f193505050501580156107d2573d5f803e3d5ffd5b505b6104f23384610d00565b5f80600b5f9054906101000a90046001600160a01b03166001600160a01b031663feaf968c6040518163ffffffff1660e01b815260040160a060405180830381865afa158015610830573d5f803e3d5ffd5b505050506040513d601f19601f820116820180604052508101906108549190610ea1565b5050509150505f8112156108aa5760405162461bcd60e51b815260206004820152601860248201527f50726963652063616e6e6f74206265206e65676174697665000000000000000060448201526064016104b0565b610727816402540be400610eed565b6002546040516370a0823160e01b81523060048201525f916001600160a01b0316906370a08231906024016106c7565b5f6108f38261070b565b90506108ff3383610ab0565b80610908610d7d565b10156109565760405162461bcd60e51b815260206004820152601a60248201527f6e6f7420617070726f76656420656e6f75676820746f6b656e7300000000000060448201526064016104b0565b6003546040516323b872dd60e01b8152336004820152306024820152604481018390526001600160a01b03909116906323b872dd906064016020604051808303815f875af11580156109aa573d5f803e3d5ffd5b505050506040513d601f19601f820116820180604052508101906109ce9190610e3a565b506109d93383610d00565b5050565b6109e5610a35565b6005546109f29082610f1c565b60065550565b610a00610a35565b6001600160a01b038116610a2957604051631e4fbdf760e01b81525f60048201526024016104b0565b610a3281610a61565b50565b5f546001600160a01b0316331461073e5760405163118cdaa760e01b81523360048201526024016104b0565b5f80546001600160a01b038381166001600160a01b0319831681178455604051919092169283917f8be0079c531659141344cd1fd0a4f28419497f9722a3daafe3b4186f6b6457e09190a35050565b6001600160a01b0382165f9081526001602052604081205490610ad38383610f1c565b60025460405163fe575a8760e01b81526001600160a01b03878116600483015292945084935091169063fe575a8790602401602060405180830381865afa158015610b20573d5f803e3d5ffd5b505050506040513d601f19601f82011682018060405250810190610b449190610e3a565b15610b915760405162461bcd60e51b815260206004820152601860248201527f726563697069616e7420697320626c61636b6c6973746564000000000000000060448201526064016104b0565b600954811115610bdc5760405162461bcd60e51b815260206004820152601660248201527563616e7420627579206d6f7265207468616e2035306b60501b60448201526064016104b0565b600554421015610c2e5760405162461bcd60e51b815260206004820152601860248201527f73616c6520686173206e6f74207374617274656420796574000000000000000060448201526064016104b0565b600654421115610c715760405162461bcd60e51b815260206004820152600e60248201526d1cd85b19481a185cc8195b99195960921b60448201526064016104b0565b5f8311610cb45760405162461bcd60e51b81526020600482015260116024820152706e6f7420656e6f7567682066756e64732160781b60448201526064016104b0565b600854831115610cfa5760405162461bcd60e51b81526020600482015260116024820152706e6f7420656e6f75676820746f6b656e7360781b60448201526064016104b0565b50505050565b8060085f828254610d119190610e59565b90915550506001600160a01b0382165f9081526001602052604081208054839290610d3d908490610f1c565b90915550506040518181526001600160a01b038316907fc54c8cc1c7525b424ec71b685c00d9355581a280488018c22005332ceb2fd4069060200161068f565b600354604051636eb1769f60e11b81523360048201523060248201525f916001600160a01b03169063dd62ed3e906044016106c7565b5f60208284031215610dc3575f80fd5b81356001600160a01b038116811461045e575f80fd5b5f60208284031215610de9575f80fd5b5035919050565b634e487b7160e01b5f52601160045260245ffd5b808202811582820484141761072757610727610df0565b5f82610e3557634e487b7160e01b5f52601260045260245ffd5b500490565b5f60208284031215610e4a575f80fd5b8151801515811461045e575f80fd5b8181038181111561072757610727610df0565b5f60208284031215610e7c575f80fd5b5051919050565b805169ffffffffffffffffffff81168114610e9c575f80fd5b919050565b5f805f805f60a08688031215610eb5575f80fd5b610ebe86610e83565b9450602086015193506040860151925060608601519150610ee160808701610e83565b90509295509295909350565b8082025f8212600160ff1b84141615610f0857610f08610df0565b818105831482151761072757610727610df0565b8082018082111561072757610727610df056fea2646970667358221220ff5fc614d8c68b9ec0eab7d1390a32c38f8046c8f2f60ba2f8d53335995a804664736f6c63430008180033",
    "sourcePath": "d:/GoIT-HW/TestTask/dexola-test-SGR/contracts/TokenSale.sol",
    "compiler": {
        "name": "solc",
        "version": "0.8.24+commit.e11b9ed9"
    },
    "functionHashes": {
        "PRECISION()": "aaf5eb68",
        "availableTokens()": "69bb4dc2",
        "buyWithEth(uint256)": "7649b957",
        "buyWithUSDT(uint256)": "a7c60160",
        "checkUserBalance(address)": "0a9bfef5",
        "claimToken(address)": "32f289cf",
        "endsAt()": "0a09284a",
        "ethBalance()": "4e6630b0",
        "ethBuyHelper(uint256)": "29a5a0b6",
        "getLatestPrice()": "8e15f473",
        "limitTokensPerUser()": "e28f2ab5",
        "owner()": "8da5cb5b",
        "renounceOwnership()": "715018a6",
        "setSaleEndTime(uint256)": "d132391a",
        "startAt()": "c7446565",
        "token()": "fc0c546a",
        "tokenBalance()": "9e1a4d19",
        "tokenPrice()": "7ff9b596",
        "transferOwnership(address)": "f2fde38b",
        "updateTokenPrice(uint256)": "676c0d77",
        "usdt()": "2f48ab7d",
        "usdtBalance()": "482edb07",
        "usdtBuyHelper(uint256)": "63e40879",
        "vestingEnd()": "84a1931f",
        "withdraw(uint256)": "2e1a7d4d"
    },
    "gasEstimates": {
        "creation": {
            "codeDepositCost": "788200",
            "executionCost": "infinite",
            "totalCost": "infinite"
        },
        "external": {
            "PRECISION()": "2350",
            "availableTokens()": "2394",
            "buyWithEth(uint256)": "infinite",
            "buyWithUSDT(uint256)": "infinite",
            "checkUserBalance(address)": "2534",
            "claimToken(address)": "infinite",
            "endsAt()": "2307",
            "ethBalance()": "227",
            "ethBuyHelper(uint256)": "infinite",
            "getLatestPrice()": "infinite",
            "limitTokensPerUser()": "2349",
            "owner()": "2418",
            "renounceOwnership()": "infinite",
            "setSaleEndTime(uint256)": "26709",
            "startAt()": "2372",
            "token()": "2446",
            "tokenBalance()": "infinite",
            "tokenPrice()": "2328",
            "transferOwnership(address)": "28382",
            "updateTokenPrice(uint256)": "22399",
            "usdt()": "2448",
            "usdtBalance()": "infinite",
            "usdtBuyHelper(uint256)": "infinite",
            "vestingEnd()": "2350",
            "withdraw(uint256)": "infinite"
        },
        "internal": {
            "_tokenPurchase(address,uint256)": "infinite",
            "_verifyPurchase(address,uint256)": "infinite",
            "getAllowance()": "infinite"
        }
    }
}